{
  "contractName": "VoterContract",
  "abi": [
    {
      "inputs": [],
      "payable": false,
      "stateMutability": "nonpayable",
      "type": "constructor"
    },
    {
      "constant": true,
      "inputs": [],
      "name": "winner",
      "outputs": [
        {
          "internalType": "address",
          "name": "",
          "type": "address"
        }
      ],
      "payable": false,
      "stateMutability": "view",
      "type": "function"
    },
    {
      "constant": false,
      "inputs": [
        {
          "internalType": "string",
          "name": "_name",
          "type": "string"
        },
        {
          "internalType": "string",
          "name": "_party",
          "type": "string"
        },
        {
          "internalType": "uint256",
          "name": "_age",
          "type": "uint256"
        },
        {
          "internalType": "string",
          "name": "_gender",
          "type": "string"
        }
      ],
      "name": "candidateRegister",
      "outputs": [],
      "payable": false,
      "stateMutability": "nonpayable",
      "type": "function"
    },
    {
      "constant": true,
      "inputs": [],
      "name": "candidateList",
      "outputs": [
        {
          "components": [
            {
              "internalType": "string",
              "name": "name",
              "type": "string"
            },
            {
              "internalType": "string",
              "name": "party",
              "type": "string"
            },
            {
              "internalType": "uint256",
              "name": "age",
              "type": "uint256"
            },
            {
              "internalType": "string",
              "name": "gender",
              "type": "string"
            },
            {
              "internalType": "uint256",
              "name": "candidateId",
              "type": "uint256"
            },
            {
              "internalType": "address",
              "name": "candidateAddress",
              "type": "address"
            },
            {
              "internalType": "uint256",
              "name": "votes",
              "type": "uint256"
            }
          ],
          "internalType": "struct VoterContract.Candidate[]",
          "name": "",
          "type": "tuple[]"
        }
      ],
      "payable": false,
      "stateMutability": "view",
      "type": "function"
    },
    {
      "constant": false,
      "inputs": [
        {
          "internalType": "string",
          "name": "_name",
          "type": "string"
        },
        {
          "internalType": "uint256",
          "name": "_age",
          "type": "uint256"
        },
        {
          "internalType": "string",
          "name": "_gender",
          "type": "string"
        }
      ],
      "name": "voterRegister",
      "outputs": [],
      "payable": false,
      "stateMutability": "nonpayable",
      "type": "function"
    },
    {
      "constant": true,
      "inputs": [],
      "name": "voterList",
      "outputs": [
        {
          "components": [
            {
              "internalType": "string",
              "name": "name",
              "type": "string"
            },
            {
              "internalType": "uint256",
              "name": "age",
              "type": "uint256"
            },
            {
              "internalType": "uint256",
              "name": "voterId",
              "type": "uint256"
            },
            {
              "internalType": "string",
              "name": "gender",
              "type": "string"
            },
            {
              "internalType": "uint256",
              "name": "voteCandidateId",
              "type": "uint256"
            },
            {
              "internalType": "address",
              "name": "voterAddress",
              "type": "address"
            }
          ],
          "internalType": "struct VoterContract.Voter[]",
          "name": "",
          "type": "tuple[]"
        }
      ],
      "payable": false,
      "stateMutability": "view",
      "type": "function"
    },
    {
      "constant": false,
      "inputs": [
        {
          "internalType": "uint256",
          "name": "_voterId",
          "type": "uint256"
        },
        {
          "internalType": "uint256",
          "name": "_id",
          "type": "uint256"
        }
      ],
      "name": "vote",
      "outputs": [],
      "payable": false,
      "stateMutability": "nonpayable",
      "type": "function"
    },
    {
      "constant": false,
      "inputs": [
        {
          "internalType": "uint256",
          "name": "_startTime",
          "type": "uint256"
        },
        {
          "internalType": "uint256",
          "name": "_endTime",
          "type": "uint256"
        }
      ],
      "name": "voteTime",
      "outputs": [],
      "payable": false,
      "stateMutability": "nonpayable",
      "type": "function"
    },
    {
      "constant": true,
      "inputs": [],
      "name": "votingStatus",
      "outputs": [
        {
          "internalType": "string",
          "name": "",
          "type": "string"
        }
      ],
      "payable": false,
      "stateMutability": "view",
      "type": "function"
    },
    {
      "constant": false,
      "inputs": [],
      "name": "result",
      "outputs": [],
      "payable": false,
      "stateMutability": "nonpayable",
      "type": "function"
    },
    {
      "constant": false,
      "inputs": [],
      "name": "emergency",
      "outputs": [],
      "payable": false,
      "stateMutability": "nonpayable",
      "type": "function"
    }
  ],
  "bytecode": "0x60806040526001600255600160035534801561001a57600080fd5b50336000806101000a81548173ffffffffffffffffffffffffffffffffffffffff021916908373ffffffffffffffffffffffffffffffffffffffff1602179055506121dd8061006a6000396000f3fe608060405234801561001057600080fd5b506004361061009e5760003560e01c806393e5fed21161006657806393e5fed214610123578063b384abef1461013f578063caa6fea41461015b578063cf5ce2e714610165578063dfbf53ae146101815761009e565b806319f41a40146100a357806324089918146100c1578063498ea441146100df57806365372147146100fd57806365ca2be314610107575b600080fd5b6100ab61019f565b6040516100b89190611e77565b60405180910390f35b6100c961029a565b6040516100d69190611e55565b60405180910390f35b6100e76104f5565b6040516100f49190611e33565b60405180910390f35b6101056107f2565b005b610121600480360361011c9190810190611771565b6109a0565b005b61013d600480360361013891908101906116e8565b610a62565b005b61015960048036036101549190810190611771565b610c93565b005b610163610f10565b005b61017f600480360361017a919081019061162f565b610fbc565b005b61018961132a565b6040516101969190611e18565b60405180910390f35b6060600060045414156101e9576040518060400160405280601681526020017f766f74696e6720686173206e6f742073746172746564000000000000000000008152509050610297565b6000600454141580156101fd575042600554115b801561021c575060001515600860009054906101000a900460ff161515145b1561025e576040518060400160405280600b81526020017f696e2070726f67726573730000000000000000000000000000000000000000008152509050610297565b6040518060400160405280600581526020017f656e64656400000000000000000000000000000000000000000000000000000081525090505b90565b6060806001600254036040519080825280602002602001820160405280156102dc57816020015b6102c961148c565b8152602001906001900390816102c15790505b5090506000600190505b6002548110156104ed57600660008281526020019081526020016000206040518060c0016040529081600082018054600181600116156101000203166002900480601f0160208091040260200160405190810160405280929190818152602001828054600181600116156101000203166002900480156103a75780601f1061037c576101008083540402835291602001916103a7565b820191906000526020600020905b81548152906001019060200180831161038a57829003601f168201915b505050505081526020016001820154815260200160028201548152602001600382018054600181600116156101000203166002900480601f01602080910402602001604051908101604052809291908181526020018280546001816001161561010002031660029004801561045d5780601f106104325761010080835404028352916020019161045d565b820191906000526020600020905b81548152906001019060200180831161044057829003601f168201915b50505050508152602001600482015481526020016005820160009054906101000a900473ffffffffffffffffffffffffffffffffffffffff1673ffffffffffffffffffffffffffffffffffffffff1673ffffffffffffffffffffffffffffffffffffffff16815250508260018303815181106104d557fe5b602002602001018190525080806001019150506102e6565b508091505090565b60608060016003540360405190808252806020026020018201604052801561053757816020015b6105246114d8565b81526020019060019003908161051c5790505b5090506000600190505b6003548110156107ea57600760008281526020019081526020016000206040518060e0016040529081600082018054600181600116156101000203166002900480601f0160208091040260200160405190810160405280929190818152602001828054600181600116156101000203166002900480156106025780601f106105d757610100808354040283529160200191610602565b820191906000526020600020905b8154815290600101906020018083116105e557829003601f168201915b50505050508152602001600182018054600181600116156101000203166002900480601f0160208091040260200160405190810160405280929190818152602001828054600181600116156101000203166002900480156106a45780601f10610679576101008083540402835291602001916106a4565b820191906000526020600020905b81548152906001019060200180831161068757829003601f168201915b5050505050815260200160028201548152602001600382018054600181600116156101000203166002900480601f0160208091040260200160405190810160405280929190818152602001828054600181600116156101000203166002900480156107505780601f1061072557610100808354040283529160200191610750565b820191906000526020600020905b81548152906001019060200180831161073357829003601f168201915b50505050508152602001600482015481526020016005820160009054906101000a900473ffffffffffffffffffffffffffffffffffffffff1673ffffffffffffffffffffffffffffffffffffffff1673ffffffffffffffffffffffffffffffffffffffff1681526020016006820154815250508260018303815181106107d257fe5b60200260200101819052508080600101915050610541565b508091505090565b3373ffffffffffffffffffffffffffffffffffffffff166000809054906101000a900473ffffffffffffffffffffffffffffffffffffffff1673ffffffffffffffffffffffffffffffffffffffff1614610881576040517f08c379a000000000000000000000000000000000000000000000000000000000815260040161087890611f99565b60405180910390fd5b6001600354116108c6576040517f08c379a00000000000000000000000000000000000000000000000000000000081526004016108bd90611f19565b60405180910390fd5b6000809050600080600190505b600354811161095a57826007600083815260200190815260200160002060060154111561094d57600760008281526020019081526020016000206006015492506007600082815260200190815260200160002060050160009054906101000a900473ffffffffffffffffffffffffffffffffffffffff1691505b80806001019150506108d3565b5080600160006101000a81548173ffffffffffffffffffffffffffffffffffffffff021916908373ffffffffffffffffffffffffffffffffffffffff1602179055505050565b3373ffffffffffffffffffffffffffffffffffffffff166000809054906101000a900473ffffffffffffffffffffffffffffffffffffffff1673ffffffffffffffffffffffffffffffffffffffff1614610a2f576040517f08c379a0000000000000000000000000000000000000000000000000000000008152600401610a2690611f99565b60405180910390fd5b81420160048190555080600454016005819055506000600860006101000a81548160ff0219169083151502179055505050565b60011515610a6f33611350565b151514610ab1576040517f08c379a0000000000000000000000000000000000000000000000000000000008152600401610aa890611f79565b60405180910390fd5b6012831015610af5576040517f08c379a0000000000000000000000000000000000000000000000000000000008152600401610aec90612019565b60405180910390fd5b6040518060c0016040528086868080601f016020809104026020016040519081016040528093929190818152602001838380828437600081840152601f19601f820116905080830192505050505050508152602001848152602001600254815260200183838080601f016020809104026020016040519081016040528093929190818152602001838380828437600081840152601f19601f820116905080830192505050505050508152602001600081526020013373ffffffffffffffffffffffffffffffffffffffff168152506006600060025481526020019081526020016000206000820151816000019080519060200190610bf492919061152b565b5060208201518160010155604082015181600201556060820151816003019080519060200190610c2592919061152b565b506080820151816004015560a08201518160050160006101000a81548173ffffffffffffffffffffffffffffffffffffffff021916908373ffffffffffffffffffffffffffffffffffffffff1602179055509050506002600081548092919060010191905055505050505050565b426005541180610cb6575060001515600860009054906101000a900460ff161515145b610cf5576040517f08c379a0000000000000000000000000000000000000000000000000000000008152600401610cec90611ef9565b60405180910390fd5b6000600660008481526020019081526020016000206004015414610d4e576040517f08c379a0000000000000000000000000000000000000000000000000000000008152600401610d4590611eb9565b60405180910390fd5b3373ffffffffffffffffffffffffffffffffffffffff166006600084815260200190815260200160002060050160009054906101000a900473ffffffffffffffffffffffffffffffffffffffff1673ffffffffffffffffffffffffffffffffffffffff1614610df2576040517f08c379a0000000000000000000000000000000000000000000000000000000008152600401610de990611fd9565b60405180910390fd5b60006004541415610e38576040517f08c379a0000000000000000000000000000000000000000000000000000000008152600401610e2f90611ed9565b60405180910390fd5b6003805414610e7c576040517f08c379a0000000000000000000000000000000000000000000000000000000008152600401610e7390611fb9565b60405180910390fd5b600081118015610e8c5750600381105b610ecb576040517f08c379a0000000000000000000000000000000000000000000000000000000008152600401610ec290611e99565b60405180910390fd5b80600660008481526020019081526020016000206004018190555060076000828152602001908152602001600020600601600081548092919060010191905055505050565b3373ffffffffffffffffffffffffffffffffffffffff166000809054906101000a900473ffffffffffffffffffffffffffffffffffffffff1673ffffffffffffffffffffffffffffffffffffffff1614610f9f576040517f08c379a0000000000000000000000000000000000000000000000000000000008152600401610f9690611f99565b60405180910390fd5b6001600860006101000a81548160ff021916908315150217905550565b6000809054906101000a900473ffffffffffffffffffffffffffffffffffffffff1673ffffffffffffffffffffffffffffffffffffffff163373ffffffffffffffffffffffffffffffffffffffff16141561104c576040517f08c379a000000000000000000000000000000000000000000000000000000000815260040161104390611ff9565b60405180910390fd5b60011515611059336113ee565b15151461109b576040517f08c379a000000000000000000000000000000000000000000000000000000000815260040161109290612039565b60405180910390fd5b60128310156110df576040517f08c379a00000000000000000000000000000000000000000000000000000000081526004016110d690611f39565b60405180910390fd5b6003805410611123576040517f08c379a000000000000000000000000000000000000000000000000000000000815260040161111a90611f59565b60405180910390fd5b6040518060e0016040528088888080601f016020809104026020016040519081016040528093929190818152602001838380828437600081840152601f19601f82011690508083019250505050505050815260200186868080601f016020809104026020016040519081016040528093929190818152602001838380828437600081840152601f19601f82011690508083019250505050505050815260200184815260200183838080601f016020809104026020016040519081016040528093929190818152602001838380828437600081840152601f19601f82011690508083019250505050505050815260200160035481526020013373ffffffffffffffffffffffffffffffffffffffff1681526020016000815250600760006003548152602001908152602001600020600082015181600001908051906020019061126c92919061152b565b50602082015181600101908051906020019061128992919061152b565b506040820151816002015560608201518160030190805190602001906112b092919061152b565b506080820151816004015560a08201518160050160006101000a81548173ffffffffffffffffffffffffffffffffffffffff021916908373ffffffffffffffffffffffffffffffffffffffff16021790555060c0820151816006015590505060036000815480929190600101919050555050505050505050565b600160009054906101000a900473ffffffffffffffffffffffffffffffffffffffff1681565b600080600190505b6002548110156113e3578273ffffffffffffffffffffffffffffffffffffffff166006600083815260200190815260200160002060050160009054906101000a900473ffffffffffffffffffffffffffffffffffffffff1673ffffffffffffffffffffffffffffffffffffffff1614156113d65760009150506113e9565b8080600101915050611358565b50600190505b919050565b600080600190505b600354811015611481578273ffffffffffffffffffffffffffffffffffffffff166007600083815260200190815260200160002060050160009054906101000a900473ffffffffffffffffffffffffffffffffffffffff1673ffffffffffffffffffffffffffffffffffffffff161415611474576000915050611487565b80806001019150506113f6565b50600190505b919050565b6040518060c001604052806060815260200160008152602001600081526020016060815260200160008152602001600073ffffffffffffffffffffffffffffffffffffffff1681525090565b6040518060e001604052806060815260200160608152602001600081526020016060815260200160008152602001600073ffffffffffffffffffffffffffffffffffffffff168152602001600081525090565b828054600181600116156101000203166002900490600052602060002090601f016020900481019282601f1061156c57805160ff191683800117855561159a565b8280016001018555821561159a579182015b8281111561159957825182559160200191906001019061157e565b5b5090506115a791906115ab565b5090565b6115cd91905b808211156115c95760008160009055506001016115b1565b5090565b90565b60008083601f8401126115e257600080fd5b8235905067ffffffffffffffff8111156115fb57600080fd5b60208301915083600182028301111561161357600080fd5b9250929050565b60008135905061162981612183565b92915050565b60008060008060008060006080888a03121561164a57600080fd5b600088013567ffffffffffffffff81111561166457600080fd5b6116708a828b016115d0565b9750975050602088013567ffffffffffffffff81111561168f57600080fd5b61169b8a828b016115d0565b955095505060406116ae8a828b0161161a565b935050606088013567ffffffffffffffff8111156116cb57600080fd5b6116d78a828b016115d0565b925092505092959891949750929550565b60008060008060006060868803121561170057600080fd5b600086013567ffffffffffffffff81111561171a57600080fd5b611726888289016115d0565b955095505060206117398882890161161a565b935050604086013567ffffffffffffffff81111561175657600080fd5b611762888289016115d0565b92509250509295509295909350565b6000806040838503121561178457600080fd5b60006117928582860161161a565b92505060206117a38582860161161a565b9150509250929050565b60006117b98383611ccf565b905092915050565b60006117cd8383611d79565b905092915050565b6117de81612103565b82525050565b6117ed81612103565b82525050565b60006117fe82612079565b61180881856120bf565b93508360208202850161181a85612059565b8060005b85811015611856578484038952815161183785826117ad565b9450611842836120a5565b925060208a0199505060018101905061181e565b50829750879550505050505092915050565b600061187382612084565b61187d81856120d0565b93508360208202850161188f85612069565b8060005b858110156118cb57848403895281516118ac85826117c1565b94506118b7836120b2565b925060208a01995050600181019050611893565b50829750879550505050505092915050565b60006118e88261209a565b6118f281856120f2565b935061190281856020860161213f565b61190b81612172565b840191505092915050565b60006119218261208f565b61192b81856120e1565b935061193b81856020860161213f565b61194481612172565b840191505092915050565b600061195c6013836120f2565b91507f696e76616c69642063616e6469647465204964000000000000000000000000006000830152602082019050919050565b600061199c600d836120f2565b91507f616c726561647920766f746564000000000000000000000000000000000000006000830152602082019050919050565b60006119dc6012836120f2565b91507f566f74696e67206e6f74207374617274656400000000000000000000000000006000830152602082019050919050565b6000611a1c600e836120f2565b91507f566f74696e67206973206f7665720000000000000000000000000000000000006000830152602082019050919050565b6000611a5c6017836120f2565b91507f6e6f2063616e64696461746520726567697374657265640000000000000000006000830152602082019050919050565b6000611a9c6014836120f2565b91507f796f7520617265206e6f7420656c696769626c650000000000000000000000006000830152602082019050919050565b6000611adc601b836120f2565b91507f63616e64696461746520726567697374726174696f6e2066756c6c00000000006000830152602082019050919050565b6000611b1c6018836120f2565b91507f766f74657220616c7265616479207265676973746572656400000000000000006000830152602082019050919050565b6000611b5c601b836120f2565b91507f4e6f742066726f6d20656c656374696f6e20636f6d6d6973696f6e00000000006000830152602082019050919050565b6000611b9c601a836120f2565b91507f63616e64696461746520726567697374726174696f6e207965740000000000006000830152602082019050919050565b6000611bdc6013836120f2565b91507f796f7520617265206e6f74206120766f746572000000000000000000000000006000830152602082019050919050565b6000611c1c6020836120f2565b91507f796f75206172652066726f6d20656c656374696f6e20636f6d6d697373696f6e6000830152602082019050919050565b6000611c5c601b836120f2565b91507f756e6465722031382c20696e656c6967626c6520746f20766f746500000000006000830152602082019050919050565b6000611c9c601c836120f2565b91507f63616e64696461746520616c72656164792072656769737465726564000000006000830152602082019050919050565b600060e0830160008301518482036000860152611cec8282611916565b91505060208301518482036020860152611d068282611916565b9150506040830151611d1b6040860182611e09565b5060608301518482036060860152611d338282611916565b9150506080830151611d486080860182611e09565b5060a0830151611d5b60a08601826117d5565b5060c0830151611d6e60c0860182611e09565b508091505092915050565b600060c0830160008301518482036000860152611d968282611916565b9150506020830151611dab6020860182611e09565b506040830151611dbe6040860182611e09565b5060608301518482036060860152611dd68282611916565b9150506080830151611deb6080860182611e09565b5060a0830151611dfe60a08601826117d5565b508091505092915050565b611e1281612135565b82525050565b6000602082019050611e2d60008301846117e4565b92915050565b60006020820190508181036000830152611e4d81846117f3565b905092915050565b60006020820190508181036000830152611e6f8184611868565b905092915050565b60006020820190508181036000830152611e9181846118dd565b905092915050565b60006020820190508181036000830152611eb28161194f565b9050919050565b60006020820190508181036000830152611ed28161198f565b9050919050565b60006020820190508181036000830152611ef2816119cf565b9050919050565b60006020820190508181036000830152611f1281611a0f565b9050919050565b60006020820190508181036000830152611f3281611a4f565b9050919050565b60006020820190508181036000830152611f5281611a8f565b9050919050565b60006020820190508181036000830152611f7281611acf565b9050919050565b60006020820190508181036000830152611f9281611b0f565b9050919050565b60006020820190508181036000830152611fb281611b4f565b9050919050565b60006020820190508181036000830152611fd281611b8f565b9050919050565b60006020820190508181036000830152611ff281611bcf565b9050919050565b6000602082019050818103600083015261201281611c0f565b9050919050565b6000602082019050818103600083015261203281611c4f565b9050919050565b6000602082019050818103600083015261205281611c8f565b9050919050565b6000819050602082019050919050565b6000819050602082019050919050565b600081519050919050565b600081519050919050565b600081519050919050565b600081519050919050565b6000602082019050919050565b6000602082019050919050565b600082825260208201905092915050565b600082825260208201905092915050565b600082825260208201905092915050565b600082825260208201905092915050565b600061210e82612115565b9050919050565b600073ffffffffffffffffffffffffffffffffffffffff82169050919050565b6000819050919050565b60005b8381101561215d578082015181840152602081019050612142565b8381111561216c576000848401525b50505050565b6000601f19601f8301169050919050565b61218c81612135565b811461219757600080fd5b5056fea365627a7a72315820f2c630ecc730a7c4b8ca1f4d7f463f754737ed019aa174ef35b2edc37265c09f6c6578706572696d656e74616cf564736f6c63430005110040",
  "source": "// SPDX-License-Identifier: MIT\npragma solidity >=0.5.0 < 0.9.0;\npragma experimental ABIEncoderV2;\n\n\n\ncontract VoterContract {\n\n    address electionComision;\n    address public winner;\n\n    struct Voter {\n        string name;\n        uint age;\n        uint voterId;\n        string gender;\n        uint voteCandidateId;\n        address voterAddress;\n    }\n\n    struct Candidate {\n        string name;\n        string party;\n        uint age;\n        string gender;\n        uint candidateId;\n        address candidateAddress;\n        uint votes;\n    }\n    \n    uint nextVoterId = 1; // voter id for voters\n    uint nextCandidateId = 1; // candidate ID for candidate\n\n    uint startTime; //start time of election\n    uint endTime; //end time of election\n\n    mapping(uint => Voter) voterDetails;\n    mapping(uint => Candidate) CandidateDetails; //mapping uint to our struct Candidate\n\n    bool stopVoting;\n\n    //constructor is decalred so that whoever deploy the smart contract is the election commissioner\n    constructor() public {\n        electionComision = msg.sender;\n    }\n\n     modifier isVotingOver(){\n        require(endTime > block.timestamp || stopVoting == false, \"Voting is over\");\n        _;\n    }\n\n    modifier onlyCommisioner(){\n        require(electionComision== msg.sender, \"Not from election commision\");\n        _;\n    }\n\n\n/*function related to candidate */\n\n    //function to see if candidate already registered or not.\n    function candidateRegister(\n        string calldata _name,\n        string calldata _party,\n        uint _age,\n        string calldata _gender\n        ) external {\n            require(msg.sender != electionComision, \"you are from election commission\");\n            require(candidateVerification(msg.sender) == true, \"candidate already registered\");\n            require(_age >= 18, \"you are not eligible\"); //if age is >= 18 then good, else return they are not eligible\n            require(nextCandidateId < 3, \"candidate registration full\"); //we are only registering 2 candidates, thats why its < 3\n            CandidateDetails[nextCandidateId] = Candidate(_name, _party, _age, _gender, nextCandidateId, msg.sender, 0);\n            nextCandidateId++;\n        }\n\n    // internal because this function is called within the contract\n    //fucntion if the candidate is alreadu register or not.\n    function candidateVerification(address _person) internal view returns (bool)  {\n        for(uint i = 1; i < nextCandidateId; i++){\n            if(CandidateDetails[i].candidateAddress == _person) {\n                return false; //if candidate already exists\n            }\n        }\n        return true; // if candidate does not exist\n    }\n\n    function candidateList()public view returns(Candidate[] memory) {\n        Candidate[] memory candidatesArr = new Candidate[](nextCandidateId - 1);// new dynamic array with nextcandidateID. -1 length\n\n        for(uint i = 1; i < nextCandidateId; i++) {\n            candidatesArr[i - 1] = CandidateDetails[i];//added [i] at the end\n        }\n        return candidatesArr;\n    }\n\n//function related to voters \n    function voterRegister(\n        string calldata _name,\n        uint _age,\n        string calldata _gender\n    ) external {\n        require(voterVerification(msg.sender) == true, \"voter already registered\");\n        require(_age >= 18, \"under 18, ineligble to vote\");\n        // require(voterId <= 100, \"voter is full\"); // implement this require if we want to limit the number of voters\n        voterDetails[nextVoterId] = Voter(_name, _age, nextVoterId, _gender, 0, msg.sender);\n        nextVoterId++;\n    }\n\n    function voterVerification(address _person) internal view returns(bool) {\n        for(uint i = 1; i < nextVoterId; i++) {\n            if(voterDetails[i].voterAddress == _person) {\n                return false;\n            }\n        }\n        return true;\n    }\n\n    function voterList() public view returns(Voter[] memory) {\n        Voter[] memory voterArr = new Voter[](nextVoterId - 1);\n        for(uint i = 1; i < nextVoterId; i++) {\n            voterArr[i - 1] = voterDetails[i];\n        }\n        return voterArr;\n    }\n\n    function vote(uint _voterId, uint _id) external isVotingOver {//isvotingOver is a modifier\n        //need voter id\n        //need to check if voter has already voted T/F\n        //store where voter voted\n        require(voterDetails[_voterId].voteCandidateId == 0, \"already voted\"); //0 might throw error, so try 1\n        require(voterDetails[_voterId].voterAddress == msg.sender, \"you are not a voter\");\n        require(startTime !=0, \"Voting not started\");\n        require(nextCandidateId == 3, \"candidate registration yet\"); //3 because in candidate verification we have a limit of 2 candidates\n        require(_id > 0 && _id < 3, \"invalid candidte Id\");\n        voterDetails[_voterId].voteCandidateId = _id;\n        CandidateDetails[_id].votes++;\n\n    }\n\n    //misc functions\n\n    function voteTime(uint _startTime, uint _endTime) external onlyCommisioner {//only eection commision (person who will deploy the contract) can call this function\n        startTime = block.timestamp + _startTime; // e.g. voting start time is 6 pm. blocktime is 4pm, then we have to add 2 hours \n        endTime = startTime + _endTime;\n        stopVoting = false;\n    }\n\n    function votingStatus() public view returns (string memory)  {\n        if(startTime == 0) {\n            return \"voting has not started\";\n        } else if((startTime != 0 && endTime > block.timestamp) && stopVoting == false){\n            return \"in progress\";\n        } else {\n            return \"ended\";\n        }\n    }\n\n\n     function checkStatus() internal view returns(bool)  {\n        string memory status = votingStatus();\n        bytes32 hexa = keccak256(abi.encodePacked(status));\n        // bytes32 started = keccak256(abi.encodePacked(\"voting has not started\"));\n        // bytes32 progress = keccak256(abi.encodePacked(\"in progress\"));\n        bytes32 ended = keccak256(abi.encodePacked(\"ended\"));\n\n        if(hexa == ended) {\n            return true;\n        } else {\n            return false;\n        }\n    }\n\n/*\n       function result() external onlyCommisioner isVotingOver {\n        Candidate storage candidate1 = CandidateDetails[1]; //candidate is a variable of type Candidate struct. candidateDetails is mapping\n        Candidate storage candidate2 = CandidateDetails[2];\n        \n        if(candidate1.votes > candidate2.votes) { //.vote is a property in Candidate struct\n            winner = candidate1.candidateAddress;\n        } else {\n            winner = candidate2.candidateAddress;\n        }\n    }\n*/  \n\n\n    //write a code for the condition in which there are more than 2 candidates\n\n      function result() external onlyCommisioner {\n        require(nextCandidateId > 1, \"no candidate registered\");\n        uint maximumVotes = 0;\n        address currentWinner;\n\n        for ( uint i = 1; i <= nextCandidateId; i++) {\n\n        if(CandidateDetails[i].votes > maximumVotes) { //.vote is a property in Candidate struct\n            maximumVotes = CandidateDetails[i].votes;\n            currentWinner = CandidateDetails[i].candidateAddress;\n            }\n        }\n        winner = currentWinner; \n    }\n\n\n    function emergency() public onlyCommisioner {\n        stopVoting = true;\n    }\n\n   \n  \n}",
  "sourcePath": "/Users/moh/Documents/codeeater course/voter-project-on-truffle/contracts/VoterContract.sol",
  "compiler": {
    "name": "solc",
    "version": "0.5.17+commit.d19bba13.Emscripten.clang"
  },
  "schemaVersion": "3.4.16",
  "updatedAt": "2025-03-10T20:10:58.801Z",
  "networkType": "ethereum",
  "devdoc": {
    "methods": {}
  },
  "userdoc": {
    "methods": {}
  }
}